{
  "_format": "hh-sol-artifact-1",
  "contractName": "Hasher",
  "sourceName": "contracts/RPS.sol",
  "abi": [
    {
      "inputs": [
        {
          "internalType": "uint8",
          "name": "_c",
          "type": "uint8"
        },
        {
          "internalType": "uint256",
          "name": "_salt",
          "type": "uint256"
        }
      ],
      "name": "hash",
      "outputs": [
        {
          "internalType": "bytes32",
          "name": "",
          "type": "bytes32"
        }
      ],
      "stateMutability": "pure",
      "type": "function"
    }
  ],
  "bytecode": "0x608060405234801561001057600080fd5b5061022b806100206000396000f3fe608060405234801561001057600080fd5b506004361061002b5760003560e01c806367ef4c1314610030575b600080fd5b61004a600480360381019061004591906100bd565b610060565b6040516100579190610162565b60405180910390f35b60008282604051602001610075929190610136565b60405160208183030381529060405280519060200120905092915050565b6000813590506100a2816101c7565b92915050565b6000813590506100b7816101de565b92915050565b600080604083850312156100d057600080fd5b60006100de858286016100a8565b92505060206100ef85828601610093565b9150509250929050565b6101028161017d565b82525050565b61011961011482610187565b61019e565b82525050565b61013061012b82610191565b6101a8565b82525050565b6000610142828561011f565b6001820191506101528284610108565b6020820191508190509392505050565b600060208201905061017760008301846100f9565b92915050565b6000819050919050565b6000819050919050565b600060ff82169050919050565b6000819050919050565b60006101b3826101ba565b9050919050565b60008160f81b9050919050565b6101d081610187565b81146101db57600080fd5b50565b6101e781610191565b81146101f257600080fd5b5056fea2646970667358221220889956f98a362ee83534c115721e1814f5c80a17efaf84855639e96124c7771e64736f6c63430008040033",
  "linkReferences": {},
  "deployedLinkReferences": {}
}