{
  "_format": "hh-sol-artifact-1",
  "contractName": "RPS",
  "sourceName": "contracts/RPS.sol",
  "abi": [
    {
      "inputs": [
        {
          "internalType": "address payable",
          "name": "_j1",
          "type": "address"
        },
        {
          "internalType": "bytes32",
          "name": "_c1Hash",
          "type": "bytes32"
        },
        {
          "internalType": "address payable",
          "name": "_j2",
          "type": "address"
        }
      ],
      "stateMutability": "payable",
      "type": "constructor"
    },
    {
      "inputs": [],
      "name": "TIMEOUT",
      "outputs": [
        {
          "internalType": "uint256",
          "name": "",
          "type": "uint256"
        }
      ],
      "stateMutability": "view",
      "type": "function"
    },
    {
      "inputs": [],
      "name": "c1Hash",
      "outputs": [
        {
          "internalType": "bytes32",
          "name": "",
          "type": "bytes32"
        }
      ],
      "stateMutability": "view",
      "type": "function"
    },
    {
      "inputs": [],
      "name": "c2",
      "outputs": [
        {
          "internalType": "enum RPS.Move",
          "name": "",
          "type": "uint8"
        }
      ],
      "stateMutability": "view",
      "type": "function"
    },
    {
      "inputs": [],
      "name": "j1",
      "outputs": [
        {
          "internalType": "address payable",
          "name": "",
          "type": "address"
        }
      ],
      "stateMutability": "view",
      "type": "function"
    },
    {
      "inputs": [],
      "name": "j1Timeout",
      "outputs": [],
      "stateMutability": "nonpayable",
      "type": "function"
    },
    {
      "inputs": [],
      "name": "j2",
      "outputs": [
        {
          "internalType": "address payable",
          "name": "",
          "type": "address"
        }
      ],
      "stateMutability": "view",
      "type": "function"
    },
    {
      "inputs": [],
      "name": "j2Timeout",
      "outputs": [],
      "stateMutability": "nonpayable",
      "type": "function"
    },
    {
      "inputs": [],
      "name": "lastAction",
      "outputs": [
        {
          "internalType": "uint256",
          "name": "",
          "type": "uint256"
        }
      ],
      "stateMutability": "view",
      "type": "function"
    },
    {
      "inputs": [
        {
          "internalType": "enum RPS.Move",
          "name": "_c2",
          "type": "uint8"
        }
      ],
      "name": "play",
      "outputs": [],
      "stateMutability": "payable",
      "type": "function"
    },
    {
      "inputs": [
        {
          "internalType": "enum RPS.Move",
          "name": "_c1",
          "type": "uint8"
        },
        {
          "internalType": "uint256",
          "name": "_salt",
          "type": "uint256"
        }
      ],
      "name": "solve",
      "outputs": [],
      "stateMutability": "nonpayable",
      "type": "function"
    },
    {
      "inputs": [],
      "name": "stake",
      "outputs": [
        {
          "internalType": "uint256",
          "name": "",
          "type": "uint256"
        }
      ],
      "stateMutability": "view",
      "type": "function"
    },
    {
      "inputs": [
        {
          "internalType": "enum RPS.Move",
          "name": "_c1",
          "type": "uint8"
        },
        {
          "internalType": "enum RPS.Move",
          "name": "_c2",
          "type": "uint8"
        }
      ],
      "name": "win",
      "outputs": [
        {
          "internalType": "bool",
          "name": "w",
          "type": "bool"
        }
      ],
      "stateMutability": "pure",
      "type": "function"
    }
  ],
  "bytecode": "0x608060405261012c600555604051620016713803806200167183398181016040528101906200002f9190620000fc565b34600481905550826000806101000a81548173ffffffffffffffffffffffffffffffffffffffff021916908373ffffffffffffffffffffffffffffffffffffffff16021790555080600160006101000a81548173ffffffffffffffffffffffffffffffffffffffff021916908373ffffffffffffffffffffffffffffffffffffffff1602179055508160028190555042600681905550505050620001c4565b600081519050620000df8162000190565b92915050565b600081519050620000f681620001aa565b92915050565b6000806000606084860312156200011257600080fd5b60006200012286828701620000ce565b93505060206200013586828701620000e5565b92505060406200014886828701620000ce565b9150509250925092565b60006200015f8262000170565b9050919050565b6000819050919050565b600073ffffffffffffffffffffffffffffffffffffffff82169050919050565b6200019b8162000152565b8114620001a757600080fd5b50565b620001b58162000166565b8114620001c157600080fd5b50565b61149d80620001d46000396000f3fe6080604052600436106100a75760003560e01c806380985af91161006457806380985af91461019d57806389f71d53146101c8578063a5ddec7c146101f3578063c37597c61461021c578063c839114214610247578063f56f48f21461025e576100a7565b80630c4395b9146100ac578063294914a4146100e95780633a4b66f11461010057806348e257cb1461012b5780634d03e3d21461015657806353a04b0514610181575b600080fd5b3480156100b857600080fd5b506100d360048036038101906100ce9190610f4b565b610289565b6040516100e09190611101565b60405180910390f35b3480156100f557600080fd5b506100fe610514565b005b34801561010c57600080fd5b506101156106b7565b6040516101229190611192565b60405180910390f35b34801561013757600080fd5b506101406106bd565b60405161014d9190611137565b60405180910390f35b34801561016257600080fd5b5061016b6106d0565b604051610178919061111c565b60405180910390f35b61019b60048036038101906101969190610f22565b6106d6565b005b3480156101a957600080fd5b506101b2610824565b6040516101bf91906110e6565b60405180910390f35b3480156101d457600080fd5b506101dd61084a565b6040516101ea9190611192565b60405180910390f35b3480156101ff57600080fd5b5061021a60048036038101906102159190610f87565b610850565b005b34801561022857600080fd5b50610231610d29565b60405161023e91906110e6565b60405180910390f35b34801561025357600080fd5b5061025c610d4d565b005b34801561026a57600080fd5b50610273610ef2565b6040516102809190611192565b60405180910390f35b60008160058111156102c4577f4e487b7100000000000000000000000000000000000000000000000000000000600052602160045260246000fd5b8360058111156102fd577f4e487b7100000000000000000000000000000000000000000000000000000000600052602160045260246000fd5b141561030c576000905061050e565b60006005811115610346577f4e487b7100000000000000000000000000000000000000000000000000000000600052602160045260246000fd5b83600581111561037f577f4e487b7100000000000000000000000000000000000000000000000000000000600052602160045260246000fd5b141561038e576000905061050e565b60028260058111156103c9577f4e487b7100000000000000000000000000000000000000000000000000000000600052602160045260246000fd5b6103d3919061130c565b600284600581111561040e577f4e487b7100000000000000000000000000000000000000000000000000000000600052602160045260246000fd5b610418919061130c565b141561049857816005811115610457577f4e487b7100000000000000000000000000000000000000000000000000000000600052602160045260246000fd5b836005811115610490577f4e487b7100000000000000000000000000000000000000000000000000000000600052602160045260246000fd5b10905061050e565b8160058111156104d1577f4e487b7100000000000000000000000000000000000000000000000000000000600052602160045260246000fd5b83600581111561050a577f4e487b7100000000000000000000000000000000000000000000000000000000600052602160045260246000fd5b1190505b92915050565b6000600581111561054e577f4e487b7100000000000000000000000000000000000000000000000000000000600052602160045260246000fd5b600360009054906101000a900460ff166005811115610596577f4e487b7100000000000000000000000000000000000000000000000000000000600052602160045260246000fd5b146105a057600080fd5b6005546006546105b091906111c9565b42116105bb57600080fd5b600060045414156105cb57600080fd5b60006004549050600060048190555060008060009054906101000a900473ffffffffffffffffffffffffffffffffffffffff1673ffffffffffffffffffffffffffffffffffffffff16826002610621919061121f565b60405161062d906110d1565b60006040518083038185875af1925050503d806000811461066a576040519150601f19603f3d011682016040523d82523d6000602084013e61066f565b606091505b50509050806106b3576040517f08c379a00000000000000000000000000000000000000000000000000000000081526004016106aa90611172565b60405180910390fd5b5050565b60045481565b600360009054906101000a900460ff1681565b60025481565b60006005811115610710577f4e487b7100000000000000000000000000000000000000000000000000000000600052602160045260246000fd5b600360009054906101000a900460ff166005811115610758577f4e487b7100000000000000000000000000000000000000000000000000000000600052602160045260246000fd5b1461076257600080fd5b600454341461077057600080fd5b600160009054906101000a900473ffffffffffffffffffffffffffffffffffffffff1673ffffffffffffffffffffffffffffffffffffffff163373ffffffffffffffffffffffffffffffffffffffff16146107ca57600080fd5b80600360006101000a81548160ff02191690836005811115610815577f4e487b7100000000000000000000000000000000000000000000000000000000600052602160045260246000fd5b02179055504260068190555050565b600160009054906101000a900473ffffffffffffffffffffffffffffffffffffffff1681565b60065481565b6000600581111561088a577f4e487b7100000000000000000000000000000000000000000000000000000000600052602160045260246000fd5b600360009054906101000a900460ff1660058111156108d2577f4e487b7100000000000000000000000000000000000000000000000000000000600052602160045260246000fd5b14156108dd57600080fd5b60008054906101000a900473ffffffffffffffffffffffffffffffffffffffff1673ffffffffffffffffffffffffffffffffffffffff163373ffffffffffffffffffffffffffffffffffffffff161461093557600080fd5b600254828260405160200161094b9291906110a5565b604051602081830303815290604052805190602001201461096b57600080fd5b6000600454141561097b57600080fd5b6000600454905060006004819055506109a383600360009054906101000a900460ff16610289565b15610a875760008060009054906101000a900473ffffffffffffffffffffffffffffffffffffffff1673ffffffffffffffffffffffffffffffffffffffff168260026109ef919061121f565b6040516109fb906110d1565b60006040518083038185875af1925050503d8060008114610a38576040519150601f19603f3d011682016040523d82523d6000602084013e610a3d565b606091505b5050905080610a81576040517f08c379a0000000000000000000000000000000000000000000000000000000008152600401610a7890611172565b60405180910390fd5b50610d24565b610aa0600360009054906101000a900460ff1684610289565b15610b85576000600160009054906101000a900473ffffffffffffffffffffffffffffffffffffffff1673ffffffffffffffffffffffffffffffffffffffff16826002610aed919061121f565b604051610af9906110d1565b60006040518083038185875af1925050503d8060008114610b36576040519150601f19603f3d011682016040523d82523d6000602084013e610b3b565b606091505b5050905080610b7f576040517f08c379a0000000000000000000000000000000000000000000000000000000008152600401610b7690611152565b60405180910390fd5b50610d23565b60008060009054906101000a900473ffffffffffffffffffffffffffffffffffffffff1673ffffffffffffffffffffffffffffffffffffffff1682604051610bcc906110d1565b60006040518083038185875af1925050503d8060008114610c09576040519150601f19603f3d011682016040523d82523d6000602084013e610c0e565b606091505b5050905080610c52576040517f08c379a0000000000000000000000000000000000000000000000000000000008152600401610c4990611172565b60405180910390fd5b6000600160009054906101000a900473ffffffffffffffffffffffffffffffffffffffff1673ffffffffffffffffffffffffffffffffffffffff1683604051610c9a906110d1565b60006040518083038185875af1925050503d8060008114610cd7576040519150601f19603f3d011682016040523d82523d6000602084013e610cdc565b606091505b5050905080610d20576040517f08c379a0000000000000000000000000000000000000000000000000000000008152600401610d1790611152565b60405180910390fd5b50505b5b505050565b60008054906101000a900473ffffffffffffffffffffffffffffffffffffffff1681565b60006005811115610d87577f4e487b7100000000000000000000000000000000000000000000000000000000600052602160045260246000fd5b600360009054906101000a900460ff166005811115610dcf577f4e487b7100000000000000000000000000000000000000000000000000000000600052602160045260246000fd5b1415610dda57600080fd5b600554600654610dea91906111c9565b4211610df557600080fd5b60006004541415610e0557600080fd5b6000600454905060006004819055506000600160009054906101000a900473ffffffffffffffffffffffffffffffffffffffff1673ffffffffffffffffffffffffffffffffffffffff16826002610e5c919061121f565b604051610e68906110d1565b60006040518083038185875af1925050503d8060008114610ea5576040519150601f19603f3d011682016040523d82523d6000602084013e610eaa565b606091505b5050905080610eee576040517f08c379a0000000000000000000000000000000000000000000000000000000008152600401610ee590611152565b60405180910390fd5b5050565b60055481565b600081359050610f0781611440565b92915050565b600081359050610f1c81611450565b92915050565b600060208284031215610f3457600080fd5b6000610f4284828501610ef8565b91505092915050565b60008060408385031215610f5e57600080fd5b6000610f6c85828601610ef8565b9250506020610f7d85828601610ef8565b9150509250929050565b60008060408385031215610f9a57600080fd5b6000610fa885828601610ef8565b9250506020610fb985828601610f0d565b9150509250929050565b610fcc81611279565b82525050565b610fdb8161128b565b82525050565b610fea81611297565b82525050565b610ff9816112de565b82525050565b61101061100b826112de565b6112fa565b82525050565b60006110236016836111b8565b915061102e826113d7565b602082019050919050565b60006110466000836111ad565b915061105182611400565b600082019050919050565b60006110696016836111b8565b915061107482611403565b602082019050919050565b611088816112d4565b82525050565b61109f61109a826112d4565b6112f0565b82525050565b60006110b18285610fff565b6001820191506110c1828461108e565b6020820191508190509392505050565b60006110dc82611039565b9150819050919050565b60006020820190506110fb6000830184610fc3565b92915050565b60006020820190506111166000830184610fd2565b92915050565b60006020820190506111316000830184610fe1565b92915050565b600060208201905061114c6000830184610ff0565b92915050565b6000602082019050818103600083015261116b81611016565b9050919050565b6000602082019050818103600083015261118b8161105c565b9050919050565b60006020820190506111a7600083018461107f565b92915050565b600081905092915050565b600082825260208201905092915050565b60006111d4826112d4565b91506111df836112d4565b9250827fffffffffffffffffffffffffffffffffffffffffffffffffffffffffffffffff038211156112145761121361133d565b5b828201905092915050565b600061122a826112d4565b9150611235836112d4565b9250817fffffffffffffffffffffffffffffffffffffffffffffffffffffffffffffffff048311821515161561126e5761126d61133d565b5b828202905092915050565b6000611284826112b4565b9050919050565b60008115159050919050565b6000819050919050565b60008190506112af8261142c565b919050565b600073ffffffffffffffffffffffffffffffffffffffff82169050919050565b6000819050919050565b60006112e9826112a1565b9050919050565b6000819050919050565b6000611305826113ca565b9050919050565b6000611317826112d4565b9150611322836112d4565b9250826113325761133161136c565b5b828206905092915050565b7f4e487b7100000000000000000000000000000000000000000000000000000000600052601160045260246000fd5b7f4e487b7100000000000000000000000000000000000000000000000000000000600052601260045260246000fd5b7f4e487b7100000000000000000000000000000000000000000000000000000000600052602160045260246000fd5b60008160f81b9050919050565b7f5472616e7366657220746f206a32206661696c65642e00000000000000000000600082015250565b50565b7f5472616e7366657220746f206a31206661696c65642e00000000000000000000600082015250565b6006811061143d5761143c61139b565b5b50565b6006811061144d57600080fd5b50565b611459816112d4565b811461146457600080fd5b5056fea264697066735822122001fd58e3d58f94e259792fb2570b6f55461c6ea9dd5306eafec29b8d06d8df5164736f6c63430008040033",
  "linkReferences": {},
  "deployedLinkReferences": {}
}