{
  "_format": "hh-sol-artifact-1",
  "contractName": "RPS",
  "sourceName": "contracts/RPS.sol",
  "abi": [
    {
      "inputs": [
        {
          "internalType": "bytes32",
          "name": "_c1Hash",
          "type": "bytes32"
        },
        {
          "internalType": "address payable",
          "name": "_j2",
          "type": "address"
        }
      ],
      "stateMutability": "payable",
      "type": "constructor"
    },
    {
      "inputs": [],
      "name": "TIMEOUT",
      "outputs": [
        {
          "internalType": "uint256",
          "name": "",
          "type": "uint256"
        }
      ],
      "stateMutability": "view",
      "type": "function"
    },
    {
      "inputs": [],
      "name": "c1Hash",
      "outputs": [
        {
          "internalType": "bytes32",
          "name": "",
          "type": "bytes32"
        }
      ],
      "stateMutability": "view",
      "type": "function"
    },
    {
      "inputs": [],
      "name": "c2",
      "outputs": [
        {
          "internalType": "enum RPS.Move",
          "name": "",
          "type": "uint8"
        }
      ],
      "stateMutability": "view",
      "type": "function"
    },
    {
      "inputs": [],
      "name": "j1",
      "outputs": [
        {
          "internalType": "address payable",
          "name": "",
          "type": "address"
        }
      ],
      "stateMutability": "view",
      "type": "function"
    },
    {
      "inputs": [],
      "name": "j1Timeout",
      "outputs": [],
      "stateMutability": "nonpayable",
      "type": "function"
    },
    {
      "inputs": [],
      "name": "j2",
      "outputs": [
        {
          "internalType": "address payable",
          "name": "",
          "type": "address"
        }
      ],
      "stateMutability": "view",
      "type": "function"
    },
    {
      "inputs": [],
      "name": "j2Timeout",
      "outputs": [],
      "stateMutability": "nonpayable",
      "type": "function"
    },
    {
      "inputs": [],
      "name": "lastAction",
      "outputs": [
        {
          "internalType": "uint256",
          "name": "",
          "type": "uint256"
        }
      ],
      "stateMutability": "view",
      "type": "function"
    },
    {
      "inputs": [
        {
          "internalType": "enum RPS.Move",
          "name": "_c2",
          "type": "uint8"
        }
      ],
      "name": "play",
      "outputs": [],
      "stateMutability": "payable",
      "type": "function"
    },
    {
      "inputs": [
        {
          "internalType": "enum RPS.Move",
          "name": "_c1",
          "type": "uint8"
        },
        {
          "internalType": "uint256",
          "name": "_salt",
          "type": "uint256"
        }
      ],
      "name": "solve",
      "outputs": [],
      "stateMutability": "nonpayable",
      "type": "function"
    },
    {
      "inputs": [],
      "name": "stake",
      "outputs": [
        {
          "internalType": "uint256",
          "name": "",
          "type": "uint256"
        }
      ],
      "stateMutability": "view",
      "type": "function"
    },
    {
      "inputs": [
        {
          "internalType": "enum RPS.Move",
          "name": "_c1",
          "type": "uint8"
        },
        {
          "internalType": "enum RPS.Move",
          "name": "_c2",
          "type": "uint8"
        }
      ],
      "name": "win",
      "outputs": [
        {
          "internalType": "bool",
          "name": "w",
          "type": "bool"
        }
      ],
      "stateMutability": "pure",
      "type": "function"
    }
  ],
  "bytecode": "0x608060405261012c6005556040516200127d3803806200127d83398181016040528101906200002f9190620000fb565b34600481905550336000806101000a81548173ffffffffffffffffffffffffffffffffffffffff021916908373ffffffffffffffffffffffffffffffffffffffff16021790555080600160006101000a81548173ffffffffffffffffffffffffffffffffffffffff021916908373ffffffffffffffffffffffffffffffffffffffff16021790555081600281905550426006819055505050620001ae565b600081519050620000de816200017a565b92915050565b600081519050620000f58162000194565b92915050565b600080604083850312156200010f57600080fd5b60006200011f85828601620000e4565b92505060206200013285828601620000cd565b9150509250929050565b600062000149826200015a565b9050919050565b6000819050919050565b600073ffffffffffffffffffffffffffffffffffffffff82169050919050565b62000185816200013c565b81146200019157600080fd5b50565b6200019f8162000150565b8114620001ab57600080fd5b50565b6110bf80620001be6000396000f3fe6080604052600436106100a75760003560e01c806380985af91161006457806380985af91461019d57806389f71d53146101c8578063a5ddec7c146101f3578063c37597c61461021c578063c839114214610247578063f56f48f21461025e576100a7565b80630c4395b9146100ac578063294914a4146100e95780633a4b66f11461010057806348e257cb1461012b5780634d03e3d21461015657806353a04b0514610181575b600080fd5b3480156100b857600080fd5b506100d360048036038101906100ce9190610c9c565b610289565b6040516100e09190610dd4565b60405180910390f35b3480156100f557600080fd5b506100fe610514565b005b34801561010c57600080fd5b5061011561062e565b6040516101229190610e25565b60405180910390f35b34801561013757600080fd5b50610140610634565b60405161014d9190610e0a565b60405180910390f35b34801561016257600080fd5b5061016b610647565b6040516101789190610def565b60405180910390f35b61019b60048036038101906101969190610c73565b61064d565b005b3480156101a957600080fd5b506101b261079b565b6040516101bf9190610db9565b60405180910390f35b3480156101d457600080fd5b506101dd6107c1565b6040516101ea9190610e25565b60405180910390f35b3480156101ff57600080fd5b5061021a60048036038101906102159190610cd8565b6107c7565b005b34801561022857600080fd5b50610231610af6565b60405161023e9190610db9565b60405180910390f35b34801561025357600080fd5b5061025c610b1a565b005b34801561026a57600080fd5b50610273610c43565b6040516102809190610e25565b60405180910390f35b60008160058111156102c4577f4e487b7100000000000000000000000000000000000000000000000000000000600052602160045260246000fd5b8360058111156102fd577f4e487b7100000000000000000000000000000000000000000000000000000000600052602160045260246000fd5b141561030c576000905061050e565b60006005811115610346577f4e487b7100000000000000000000000000000000000000000000000000000000600052602160045260246000fd5b83600581111561037f577f4e487b7100000000000000000000000000000000000000000000000000000000600052602160045260246000fd5b141561038e576000905061050e565b60028260058111156103c9577f4e487b7100000000000000000000000000000000000000000000000000000000600052602160045260246000fd5b6103d39190610f83565b600284600581111561040e577f4e487b7100000000000000000000000000000000000000000000000000000000600052602160045260246000fd5b6104189190610f83565b141561049857816005811115610457577f4e487b7100000000000000000000000000000000000000000000000000000000600052602160045260246000fd5b836005811115610490577f4e487b7100000000000000000000000000000000000000000000000000000000600052602160045260246000fd5b10905061050e565b8160058111156104d1577f4e487b7100000000000000000000000000000000000000000000000000000000600052602160045260246000fd5b83600581111561050a577f4e487b7100000000000000000000000000000000000000000000000000000000600052602160045260246000fd5b1190505b92915050565b6000600581111561054e577f4e487b7100000000000000000000000000000000000000000000000000000000600052602160045260246000fd5b600360009054906101000a900460ff166005811115610596577f4e487b7100000000000000000000000000000000000000000000000000000000600052602160045260246000fd5b146105a057600080fd5b6005546006546105b09190610e40565b42116105bb57600080fd5b60008054906101000a900473ffffffffffffffffffffffffffffffffffffffff1673ffffffffffffffffffffffffffffffffffffffff166108fc6004549081150290604051600060405180830381858888f19350505050158015610623573d6000803e3d6000fd5b506000600481905550565b60045481565b600360009054906101000a900460ff1681565b60025481565b60006005811115610687577f4e487b7100000000000000000000000000000000000000000000000000000000600052602160045260246000fd5b600360009054906101000a900460ff1660058111156106cf577f4e487b7100000000000000000000000000000000000000000000000000000000600052602160045260246000fd5b146106d957600080fd5b60045434146106e757600080fd5b600160009054906101000a900473ffffffffffffffffffffffffffffffffffffffff1673ffffffffffffffffffffffffffffffffffffffff163373ffffffffffffffffffffffffffffffffffffffff161461074157600080fd5b80600360006101000a81548160ff0219169083600581111561078c577f4e487b7100000000000000000000000000000000000000000000000000000000600052602160045260246000fd5b02179055504260068190555050565b600160009054906101000a900473ffffffffffffffffffffffffffffffffffffffff1681565b60065481565b60006005811115610801577f4e487b7100000000000000000000000000000000000000000000000000000000600052602160045260246000fd5b600360009054906101000a900460ff166005811115610849577f4e487b7100000000000000000000000000000000000000000000000000000000600052602160045260246000fd5b141561085457600080fd5b60008054906101000a900473ffffffffffffffffffffffffffffffffffffffff1673ffffffffffffffffffffffffffffffffffffffff163373ffffffffffffffffffffffffffffffffffffffff16146108ac57600080fd5b60025482826040516020016108c2929190610d8d565b60405160208183030381529060405280519060200120146108e257600080fd5b6108fb82600360009054906101000a900460ff16610289565b1561097a5760008054906101000a900473ffffffffffffffffffffffffffffffffffffffff1673ffffffffffffffffffffffffffffffffffffffff166108fc60045460026109499190610e96565b9081150290604051600060405180830381858888f19350505050158015610974573d6000803e3d6000fd5b50610aea565b610993600360009054906101000a900460ff1683610289565b15610a1457600160009054906101000a900473ffffffffffffffffffffffffffffffffffffffff1673ffffffffffffffffffffffffffffffffffffffff166108fc60045460026109e39190610e96565b9081150290604051600060405180830381858888f19350505050158015610a0e573d6000803e3d6000fd5b50610ae9565b60008054906101000a900473ffffffffffffffffffffffffffffffffffffffff1673ffffffffffffffffffffffffffffffffffffffff166108fc6004549081150290604051600060405180830381858888f19350505050158015610a7c573d6000803e3d6000fd5b50600160009054906101000a900473ffffffffffffffffffffffffffffffffffffffff1673ffffffffffffffffffffffffffffffffffffffff166108fc6004549081150290604051600060405180830381858888f19350505050158015610ae7573d6000803e3d6000fd5b505b5b60006004819055505050565b60008054906101000a900473ffffffffffffffffffffffffffffffffffffffff1681565b60006005811115610b54577f4e487b7100000000000000000000000000000000000000000000000000000000600052602160045260246000fd5b600360009054906101000a900460ff166005811115610b9c577f4e487b7100000000000000000000000000000000000000000000000000000000600052602160045260246000fd5b1415610ba757600080fd5b600554600654610bb79190610e40565b4211610bc257600080fd5b600160009054906101000a900473ffffffffffffffffffffffffffffffffffffffff1673ffffffffffffffffffffffffffffffffffffffff166108fc6004546002610c0d9190610e96565b9081150290604051600060405180830381858888f19350505050158015610c38573d6000803e3d6000fd5b506000600481905550565b60055481565b600081359050610c5881611062565b92915050565b600081359050610c6d81611072565b92915050565b600060208284031215610c8557600080fd5b6000610c9384828501610c49565b91505092915050565b60008060408385031215610caf57600080fd5b6000610cbd85828601610c49565b9250506020610cce85828601610c49565b9150509250929050565b60008060408385031215610ceb57600080fd5b6000610cf985828601610c49565b9250506020610d0a85828601610c5e565b9150509250929050565b610d1d81610ef0565b82525050565b610d2c81610f02565b82525050565b610d3b81610f0e565b82525050565b610d4a81610f55565b82525050565b610d61610d5c82610f55565b610f71565b82525050565b610d7081610f4b565b82525050565b610d87610d8282610f4b565b610f67565b82525050565b6000610d998285610d50565b600182019150610da98284610d76565b6020820191508190509392505050565b6000602082019050610dce6000830184610d14565b92915050565b6000602082019050610de96000830184610d23565b92915050565b6000602082019050610e046000830184610d32565b92915050565b6000602082019050610e1f6000830184610d41565b92915050565b6000602082019050610e3a6000830184610d67565b92915050565b6000610e4b82610f4b565b9150610e5683610f4b565b9250827fffffffffffffffffffffffffffffffffffffffffffffffffffffffffffffffff03821115610e8b57610e8a610fb4565b5b828201905092915050565b6000610ea182610f4b565b9150610eac83610f4b565b9250817fffffffffffffffffffffffffffffffffffffffffffffffffffffffffffffffff0483118215151615610ee557610ee4610fb4565b5b828202905092915050565b6000610efb82610f2b565b9050919050565b60008115159050919050565b6000819050919050565b6000819050610f268261104e565b919050565b600073ffffffffffffffffffffffffffffffffffffffff82169050919050565b6000819050919050565b6000610f6082610f18565b9050919050565b6000819050919050565b6000610f7c82611041565b9050919050565b6000610f8e82610f4b565b9150610f9983610f4b565b925082610fa957610fa8610fe3565b5b828206905092915050565b7f4e487b7100000000000000000000000000000000000000000000000000000000600052601160045260246000fd5b7f4e487b7100000000000000000000000000000000000000000000000000000000600052601260045260246000fd5b7f4e487b7100000000000000000000000000000000000000000000000000000000600052602160045260246000fd5b60008160f81b9050919050565b6006811061105f5761105e611012565b5b50565b6006811061106f57600080fd5b50565b61107b81610f4b565b811461108657600080fd5b5056fea2646970667358221220708a2646331a5f20b57bffdb4b13389af13fce82e415dea30c1dfdbd942ab1ab64736f6c63430008040033",
  "linkReferences": {},
  "deployedLinkReferences": {}
}